{
  "txid": "696e01be235c7d08da1ac4cafeb186185b6e222a62de31ad6f1a80cb8ff3c58d",
  "version": 2,
  "size": 373,
  "locktime": 53010,
  "vin": [
    {
      "txid": "0e520dd54831f534954c26dbbfebcc386f50d041c70e6d30e523cba42701a669",
      "vout": 0,
      "scriptSig": {
        "asm": "30440220581b9224a71983b055a065cd7fab3f806e7ac77ef2572c0127966d17546e9c1702207f4a37807bd36c3a5dc134676004aa6c11400d2a4b2878e1c95ba4ebce4f8f60[ALL] 0372d23fd5cede58e73e9553613f010dc2492697a52d2c862a46503d50c592ecac",
        "hex": "4730440220581b9224a71983b055a065cd7fab3f806e7ac77ef2572c0127966d17546e9c1702207f4a37807bd36c3a5dc134676004aa6c11400d2a4b2878e1c95ba4ebce4f8f6001210372d23fd5cede58e73e9553613f010dc2492697a52d2c862a46503d50c592ecac"
      },
      "sequence": 4294967294
    },
    {
      "txid": "94e8d06f7a56e818ad22f45470ba592713d3b2731426c31b9707e182067d8db5",
      "vout": 0,
      "scriptSig": {
        "asm": "3045022100c3659178e121ee4440d6459eb5ffa71e2b41636387b8451218023e28fce3ddaa022015a366b68dcf11154690dcacf68b3b4087e1d5555caff91af1330b592d9efa34[ALL] 029397a62ad18c608c342bff57a9c9f7d1e46f2c64392d8cfbec41c3325f0726c4",
        "hex": "483045022100c3659178e121ee4440d6459eb5ffa71e2b41636387b8451218023e28fce3ddaa022015a366b68dcf11154690dcacf68b3b4087e1d5555caff91af1330b592d9efa340121029397a62ad18c608c342bff57a9c9f7d1e46f2c64392d8cfbec41c3325f0726c4"
      },
      "sequence": 4294967294
    }
  ],
  "vout": [
    {
      "value": 0.01999104,
      "valueSat": 1999104,
      "n": 0,
      "scriptPubKey": {
        "asm": "OP_DUP OP_HASH160 140864a9fe530cb9cbdfa35e43962c04158bb5a9 OP_EQUALVERIFY OP_CHECKSIG",
        "hex": "76a914140864a9fe530cb9cbdfa35e43962c04158bb5a988ac",
        "reqSigs": 1,
        "type": "pubkeyhash",
        "addresses": [
          "yN9NRDBB2UaNUAe3yYfak5zPEiMuELP5Dv"
        ]
      }
    },
    {
      "value": 1007.10,
      "valueSat": 100710000000,
      "n": 1,
      "scriptPubKey": {
        "asm": "OP_DUP OP_HASH160 a579388225827d9f2fe9014add644487808c695d OP_EQUALVERIFY OP_CHECKSIG",
        "hex": "76a914a579388225827d9f2fe9014add644487808c695d88ac",
        "reqSigs": 1,
        "type": "pubkeyhash",
        "addresses": [
          "ybQPZRHKifv9BDqMN2cieCsMzQQ1BuDoR5"
        ]
      }
    }
  ],
  "hex": "020000000269a60127a4cb23e5306d0ec741d0506f38ccebbfdb264c9534f53148d50d520e000000006a4730440220581b9224a71983b055a065cd7fab3f806e7ac77ef2572c0127966d17546e9c1702207f4a37807bd36c3a5dc134676004aa6c11400d2a4b2878e1c95ba4ebce4f8f6001210372d23fd5cede58e73e9553613f010dc2492697a52d2c862a46503d50c592ecacfeffffffb58d7d0682e107971bc3261473b2d3132759ba7054f422ad18e8567a6fd0e894000000006b483045022100c3659178e121ee4440d6459eb5ffa71e2b41636387b8451218023e28fce3ddaa022015a366b68dcf11154690dcacf68b3b4087e1d5555caff91af1330b592d9efa340121029397a62ad18c608c342bff57a9c9f7d1e46f2c64392d8cfbec41c3325f0726c4feffffff0200811e00000000001976a914140864a9fe530cb9cbdfa35e43962c04158bb5a988ac80a5c872170000001976a914a579388225827d9f2fe9014add644487808c695d88ac12cf0000"
}